{
  "contractName": "BirdOracle",
  "abi": [
    {
      "anonymous": false,
      "inputs": [
        {
          "indexed": false,
          "internalType": "uint256",
          "name": "id",
          "type": "uint256"
        },
        {
          "indexed": false,
          "internalType": "string",
          "name": "url",
          "type": "string"
        },
        {
          "indexed": false,
          "internalType": "string",
          "name": "key",
          "type": "string"
        }
      ],
      "name": "OffChainRequest",
      "type": "event"
    },
    {
      "anonymous": false,
      "inputs": [
        {
          "indexed": false,
          "internalType": "uint256",
          "name": "id",
          "type": "uint256"
        },
        {
          "indexed": false,
          "internalType": "string",
          "name": "url",
          "type": "string"
        },
        {
          "indexed": false,
          "internalType": "string",
          "name": "key",
          "type": "string"
        },
        {
          "indexed": false,
          "internalType": "uint256",
          "name": "value",
          "type": "uint256"
        }
      ],
      "name": "UpdatedRequest",
      "type": "event"
    },
    {
      "constant": false,
      "inputs": [
        {
          "internalType": "string",
          "name": "_url",
          "type": "string"
        },
        {
          "internalType": "string",
          "name": "_key",
          "type": "string"
        }
      ],
      "name": "newChainRequest",
      "outputs": [],
      "payable": false,
      "stateMutability": "nonpayable",
      "type": "function"
    },
    {
      "constant": false,
      "inputs": [
        {
          "internalType": "uint256",
          "name": "_id",
          "type": "uint256"
        },
        {
          "internalType": "uint256",
          "name": "_valueResponse",
          "type": "uint256"
        }
      ],
      "name": "updatedChainRequest",
      "outputs": [],
      "payable": false,
      "stateMutability": "nonpayable",
      "type": "function"
    },
    {
      "constant": true,
      "inputs": [
        {
          "internalType": "string",
          "name": "_url",
          "type": "string"
        }
      ],
      "name": "getRating",
      "outputs": [
        {
          "internalType": "uint256",
          "name": "",
          "type": "uint256"
        }
      ],
      "payable": false,
      "stateMutability": "view",
      "type": "function"
    },
    {
      "constant": false,
      "inputs": [
        {
          "internalType": "address",
          "name": "_address",
          "type": "address"
        },
        {
          "internalType": "uint256",
          "name": "value",
          "type": "uint256"
        }
      ],
      "name": "updateRating",
      "outputs": [],
      "payable": false,
      "stateMutability": "nonpayable",
      "type": "function"
    },
    {
      "constant": true,
      "inputs": [
        {
          "internalType": "address",
          "name": "_address",
          "type": "address"
        }
      ],
      "name": "getAddressRating",
      "outputs": [
        {
          "internalType": "uint256",
          "name": "",
          "type": "uint256"
        }
      ],
      "payable": false,
      "stateMutability": "view",
      "type": "function"
    }
  ],
  "bytecode": "0x608060405260026001556003600255600060035534801561001f57600080fd5b50610bec8061002f6000396000f3fe608060405234801561001057600080fd5b50600436106100575760003560e01c80634e63f9b11461005c578063a137a250146100aa578063d79397ac146100e2578063e1acb7661461013a578063f8326a5e1461028c575b600080fd5b6100a86004803603604081101561007257600080fd5b81019080803573ffffffffffffffffffffffffffffffffffffffff1690602001909291908035906020019092919050505061035b565b005b6100e0600480360360408110156100c057600080fd5b8101908080359060200190929190803590602001909291905050506103a3565b005b610124600480360360208110156100f857600080fd5b81019080803573ffffffffffffffffffffffffffffffffffffffff169060200190929190505050610709565b6040518082815260200191505060405180910390f35b61028a6004803603604081101561015057600080fd5b810190808035906020019064010000000081111561016d57600080fd5b82018360208201111561017f57600080fd5b803590602001918460018302840111640100000000831117156101a157600080fd5b91908080601f016020809104026020016040519081016040528093929190818152602001838380828437600081840152601f19601f8201169050808301925050505050505091929192908035906020019064010000000081111561020457600080fd5b82018360208201111561021657600080fd5b8035906020019184600183028401116401000000008311171561023857600080fd5b91908080601f016020809104026020016040519081016040528093929190818152602001838380828437600081840152601f19601f820116905080830192505050505050509192919290505050610752565b005b610345600480360360208110156102a257600080fd5b81019080803590602001906401000000008111156102bf57600080fd5b8201836020820111156102d157600080fd5b803590602001918460018302840111640100000000831117156102f357600080fd5b91908080601f016020809104026020016040519081016040528093929190818152602001838380828437600081840152601f19601f820116905080830192505050505050509192919290505050610a9f565b6040518082815260200191505060405180910390f35b80600560008473ffffffffffffffffffffffffffffffffffffffff1673ffffffffffffffffffffffffffffffffffffffff168152602001908152602001600020819055505050565b60008083815481106103b157fe5b906000526020600020906008020190508060050160009054906101000a900460ff16156103de5750610705565b60018160070160003373ffffffffffffffffffffffffffffffffffffffff1673ffffffffffffffffffffffffffffffffffffffff1681526020019081526020016000205414156107035760028160070160003373ffffffffffffffffffffffffffffffffffffffff1673ffffffffffffffffffffffffffffffffffffffff16815260200190815260200160002081905550600081600401549050828260060160008381526020019081526020016000208190555060018101826004018190555060006001905060008090505b828110156106ff5760008460060160008381526020019081526020016000205490506000869050808214156106f057838060010194505060015484106106ef5786866003018190555060018660050160006101000a81548160ff021916908315150217905550856003015460048760010160405180828054600181600116156101000203166002900480156105765780601f10610554576101008083540402835291820191610576565b820191906000526020600020905b815481529060010190602001808311610562575b50509150509081526020016040518091039020819055507f92cd7eb0bd7501df710956d329b91619314579e49f857dd4c1b773a296896d318660000154876001018860020189600301546040518085815260200180602001806020018481526020018381038352868181546001816001161561010002031660029004815260200191508054600181600116156101000203166002900480156106595780601f1061062e57610100808354040283529160200191610659565b820191906000526020600020905b81548152906001019060200180831161063c57829003601f168201915b50508381038252858181546001816001161561010002031660029004815260200191508054600181600116156101000203166002900480156106dc5780601f106106b1576101008083540402835291602001916106dc565b820191906000526020600020905b8154815290600101906020018083116106bf57829003601f168201915b5050965050505050505060405180910390a15b5b505080806001019150506104aa565b5050505b505b5050565b6000600560008373ffffffffffffffffffffffffffffffffffffffff1673ffffffffffffffffffffffffffffffffffffffff168152602001908152602001600020549050919050565b6000806040518060c001604052806003548152602001858152602001848152602001600081526020016000815260200160001515815250908060018154018082558091505090600182039060005260206000209060080201600090919290919091506000820151816000015560208201518160010190805190602001906107da929190610b12565b5060408201518160020190805190602001906107f7929190610b12565b50606082015181600301556080820151816004015560a08201518160050160006101000a81548160ff02191690831515021790555050509050600080600183038154811061084157fe5b9060005260206000209060080201905060007335fa8692eb10f87d17cd27fb5488598d33b023e5905060007358fd79d34edc6362f92c6799ee46945113a6ea9190506000730e4338dfeda53bc35467a09da483410664d34e88905060018460070160008573ffffffffffffffffffffffffffffffffffffffff1673ffffffffffffffffffffffffffffffffffffffff1681526020019081526020016000208190555060018460070160008473ffffffffffffffffffffffffffffffffffffffff1673ffffffffffffffffffffffffffffffffffffffff1681526020019081526020016000208190555060018460070160008373ffffffffffffffffffffffffffffffffffffffff1673ffffffffffffffffffffffffffffffffffffffff168152602001908152602001600020819055507f6be3b018dc8c4a262e56f320e56fcc7bfa6bdcaf0fa7879d956dad30c34eee766003548888604051808481526020018060200180602001838103835285818151815260200191508051906020019080838360005b838110156109e15780820151818401526020810190506109c6565b50505050905090810190601f168015610a0e5780820380516001836020036101000a031916815260200191505b50838103825284818151815260200191508051906020019080838360005b83811015610a47578082015181840152602081019050610a2c565b50505050905090810190601f168015610a745780820380516001836020036101000a031916815260200191505b509550505050505060405180910390a160036000815480929190600101919050555050505050505050565b60006004826040518082805190602001908083835b60208310610ad75780518252602082019150602081019050602083039250610ab4565b6001836020036101000a0380198251168184511680821785525050505050509050019150509081526020016040518091039020549050919050565b828054600181600116156101000203166002900490600052602060002090601f016020900481019282601f10610b5357805160ff1916838001178555610b81565b82800160010185558215610b81579182015b82811115610b80578251825591602001919060010190610b65565b5b509050610b8e9190610b92565b5090565b610bb491905b80821115610bb0576000816000905550600101610b98565b5090565b9056fea265627a7a72315820a926e0c04aa3102482ed0a120b517f4d351a98a3ff107a84ce2ef6404ae33ee664736f6c63430005100032",
  "source": "pragma solidity ^0.5.16;\n\n // SPDX-License-Identifier: MIT\n/**\nBird On-chain Oracle to confirm rating with 2+ consensus before update using the off-chain API https://www.bird.money/docs\n*/\n\ncontract BirdOracle {\n  BirdRequest[] onChainRequests; //keep track of list of on-chain requests\n  uint minConsensus = 2; //minimum number of consensus before confirmation \n  uint birdNest = 3; // bird consensus count\n  uint trackId = 0; //increament id's\n\n    /**\n   * Bird Standard API Request\n   * id: \"1\"\n   * url: \"https://www.bird.money/analytics/address/ethaddress\"\n   * key: \"bird_rating\"\n   * value: \"0.4\" => 400000000000000000\n   * arrivedBirds: 0\n   * resolved: true/false\n   * response: response from off-chain oracles \n   * nest: approved off-chain oracles nest/addresses and keep track of vote (1=not voted, 2=voted)\n   */\n  struct BirdRequest {\n    uint id;   \n    string url; \n    string key; \n    uint value;\n    uint arrivedBirds;\n    bool resolved;\n    mapping(uint => uint) response;\n    mapping(address => uint) nest; \n  }\n  \n    /**\n   * Bird Standard API Request\n   * Off-Chain-Request from outside the blockchain \n   */\n  event OffChainRequest (\n    uint id,\n    string url,\n    string key\n  );\n\n    /**\n   * To call when there is consensus on final result\n   */\n   \n  event UpdatedRequest (\n    uint id,\n    string url,\n    string key,\n    uint value\n  );\n\n  // container for the ratings\n  mapping (string => uint) ratings;\n\n  mapping (address => uint) userRatings;\n\n  function newChainRequest (\n    string memory _url,\n    string memory _key\n  )\n  public   \n  {\n    uint length = onChainRequests.push(BirdRequest(trackId, _url, _key, 0, 0, false));\n    BirdRequest storage r = onChainRequests[length - 1];\n\n    /**\n   * trusted oracles in bird nest\n   */\n    address trustedBird1 = address(0x35fA8692EB10F87D17Cd27fB5488598D33B023E5);\n    address trustedBird2 = address(0x58Fd79D34Edc6362f92c6799eE46945113A6EA91);\n    address trustedBird3 = address(0x0e4338DFEdA53Bc35467a09Da483410664d34e88);\n    \n    /**\n   * track votes\n   */\n    r.nest[trustedBird1] = 1;\n    r.nest[trustedBird2] = 1;\n    r.nest[trustedBird3] = 1;\n\n    /**\n   * Off-Chain event trigger\n   */\n    emit OffChainRequest (\n      trackId,\n      _url,\n      _key\n    );\n\n    /**\n   * Off-Chain event trigger\n   */\n    trackId++;\n  }\n\n  //called by the oracle to record its answer\n    /**\n   * Off-Chain oracle to update its consensus answer\n   */\n  function updatedChainRequest (\n    uint _id,\n    uint _valueResponse\n  ) public {\n\n    BirdRequest storage trackRequest = onChainRequests[_id];\n\n    if (trackRequest.resolved)\n      return;\n\n    /**\n   * To confirm an address/oracle is part of the trusted nest and has not voted\n   */\n    if(trackRequest.nest[address(msg.sender)] == 1){\n        \n        /**\n       * change vote value to = 2 from 1\n       */\n      trackRequest.nest[msg.sender] = 2;\n      \n        /**\n       * Loop through responses for empty position, save the response\n       * TODO: refactor\n       */\n      uint tmpI = trackRequest.arrivedBirds;\n      trackRequest.response[tmpI] = _valueResponse;\n      trackRequest.arrivedBirds = tmpI + 1;\n      \n      uint currentConsensusCount = 1;\n      \n        /**\n       * Loop through list and check if min consensus has been reached\n       */\n      \n      for(uint i = 0; i < tmpI; i++){\n        uint a = trackRequest.response[i];\n        uint b = _valueResponse;\n\n        if(a == b){\n          currentConsensusCount++;\n          if(currentConsensusCount >= minConsensus){\n            trackRequest.value = _valueResponse;\n            trackRequest.resolved = true;\n\n            // Save value and user information into the bird rating container\n            ratings[trackRequest.url] = trackRequest.value;\n            \n            emit UpdatedRequest (\n              trackRequest.id,\n              trackRequest.url,\n              trackRequest.key,\n              trackRequest.value\n            );\n          }\n        }\n      }\n    }\n  }\n\n    /**\n   * access to saved ratings after Oracle consensus\n   */\n  function getRating(string memory _url) public view returns (uint) {\n    return ratings[_url];\n  }\n\n  function updateRating(address _address, uint value) public {\n    userRatings[_address] = value;\n  }\n  /**\n   * get rating by address\n   */\n  function getAddressRating(address _address) public view returns (uint){\n    return userRatings[_address];\n  }\n\n  function concatString(string memory _a, string memory _b) internal pure returns (string memory) {\n    return string(abi.encodePacked(_a,_b));\n  }\n\n}",
  "sourcePath": "E:/work/ethereum/simba/work/on-chain-oracle/contracts/BirdOracle.sol",
  "compiler": {
    "name": "solc",
    "version": "0.5.16+commit.9c3226ce.Emscripten.clang"
  },
  "schemaVersion": "3.3.3",
  "updatedAt": "2021-01-13T09:15:51.358Z",
  "networkType": "ethereum",
  "devdoc": {
    "methods": {}
  },
  "userdoc": {
    "methods": {
      "getAddressRating(address)": {
        "notice": "get rating by address"
      },
      "getRating(string)": {
        "notice": "access to saved ratings after Oracle consensus"
      },
      "updatedChainRequest(uint256,uint256)": {
        "notice": "Off-Chain oracle to update its consensus answer"
      }
    },
    "notice": "Bird On-chain Oracle to confirm rating with 2+ consensus before update using the off-chain API https://www.bird.money/docs"
  }
}