{
  "contractName": "BirdOracle",
  "abi": [
    {
      "anonymous": false,
      "inputs": [
        {
          "indexed": false,
          "internalType": "uint256",
          "name": "id",
          "type": "uint256"
        },
        {
          "indexed": false,
          "internalType": "string",
          "name": "url",
          "type": "string"
        },
        {
          "indexed": false,
          "internalType": "string",
          "name": "key",
          "type": "string"
        }
      ],
      "name": "OffChainRequest",
      "type": "event"
    },
    {
      "anonymous": false,
      "inputs": [
        {
          "indexed": false,
          "internalType": "uint256",
          "name": "id",
          "type": "uint256"
        },
        {
          "indexed": false,
          "internalType": "string",
          "name": "url",
          "type": "string"
        },
        {
          "indexed": false,
          "internalType": "string",
          "name": "key",
          "type": "string"
        },
        {
          "indexed": false,
          "internalType": "string",
          "name": "value",
          "type": "string"
        }
      ],
      "name": "UpdatedRequest",
      "type": "event"
    },
    {
      "constant": false,
      "inputs": [
        {
          "internalType": "string",
          "name": "_url",
          "type": "string"
        },
        {
          "internalType": "string",
          "name": "_key",
          "type": "string"
        }
      ],
      "name": "newChainRequest",
      "outputs": [],
      "payable": false,
      "stateMutability": "nonpayable",
      "type": "function"
    },
    {
      "constant": false,
      "inputs": [
        {
          "internalType": "uint256",
          "name": "_id",
          "type": "uint256"
        },
        {
          "internalType": "string",
          "name": "_valueResponse",
          "type": "string"
        }
      ],
      "name": "updatedChainRequest",
      "outputs": [],
      "payable": false,
      "stateMutability": "nonpayable",
      "type": "function"
    },
    {
      "constant": true,
      "inputs": [
        {
          "internalType": "string",
          "name": "_url",
          "type": "string"
        }
      ],
      "name": "getRating",
      "outputs": [
        {
          "internalType": "string",
          "name": "",
          "type": "string"
        }
      ],
      "payable": false,
      "stateMutability": "view",
      "type": "function"
    }
  ],
  "bytecode": "0x608060405260026001556003600255600060035534801561001f57600080fd5b50610ee38061002f6000396000f3fe608060405234801561001057600080fd5b50600436106100415760003560e01c8063530d8d5014610046578063e1acb7661461010b578063f8326a5e1461025d575b600080fd5b6101096004803603604081101561005c57600080fd5b81019080803590602001909291908035906020019064010000000081111561008357600080fd5b82018360208201111561009557600080fd5b803590602001918460018302840111640100000000831117156100b757600080fd5b91908080601f016020809104026020016040519081016040528093929190818152602001838380828437600081840152601f19601f820116905080830192505050505050509192919290505050610391565b005b61025b6004803603604081101561012157600080fd5b810190808035906020019064010000000081111561013e57600080fd5b82018360208201111561015057600080fd5b8035906020019184600183028401116401000000008311171561017257600080fd5b91908080601f016020809104026020016040519081016040528093929190818152602001838380828437600081840152601f19601f820116905080830192505050505050509192919290803590602001906401000000008111156101d557600080fd5b8201836020820111156101e757600080fd5b8035906020019184600183028401116401000000008311171561020957600080fd5b91908080601f016020809104026020016040519081016040528093929190818152602001838380828437600081840152601f19601f82011690508083019250505050505050919291929050505061089a565b005b6103166004803603602081101561027357600080fd5b810190808035906020019064010000000081111561029057600080fd5b8201836020820111156102a257600080fd5b803590602001918460018302840111640100000000831117156102c457600080fd5b91908080601f016020809104026020016040519081016040528093929190818152602001838380828437600081840152601f19601f820116905080830192505050505050509192919290505050610bf7565b6040518080602001828103825283818151815260200191508051906020019080838360005b8381101561035657808201518184015260208101905061033b565b50505050905090810190601f1680156103835780820380516001836020036101000a031916815260200191505b509250505060405180910390f35b600080838154811061039f57fe5b906000526020600020906007020190508060040160009054906101000a900460ff16156103cc5750610896565b60018160060160003373ffffffffffffffffffffffffffffffffffffffff1673ffffffffffffffffffffffffffffffffffffffff1681526020019081526020016000205414156108945760028160060160003373ffffffffffffffffffffffffffffffffffffffff1673ffffffffffffffffffffffffffffffffffffffff16815260200190815260200160002081905550600080905060008090505b806104db57600083600501600084815260200190815260200160002080546001816001161561010002031660029004905014156104ce57600190508383600501600084815260200190815260200160002090805190602001906104cc929190610d02565b505b8180600101925050610468565b600080905060008090505b60025481101561088f5760608560050160008381526020019081526020016000208054600181600116156101000203166002900480601f01602080910402602001604051908101604052809291908181526020018280546001816001161561010002031660029004801561059b5780601f106105705761010080835404028352916020019161059b565b820191906000526020600020905b81548152906001019060200180831161057e57829003601f168201915b505050505090506060879050808051906020012082805190602001201415610880578380600101945050600154841061087f57878760030190805190602001906105e6929190610d02565b5060018760040160006101000a81548160ff0219169083151502179055508660030160048860010160405180828054600181600116156101000203166002900480156106695780601f10610647576101008083540402835291820191610669565b820191906000526020600020905b815481529060010190602001808311610655575b50509150509081526020016040518091039020908054600181600116156101000203166002900461069b929190610d82565b507f51f1e1f00d186e79f8ea7c82be079fcdd49fe881904a9cdc1903345eb69d3831876000015488600101896002018a600301604051808581526020018060200180602001806020018481038452878181546001816001161561010002031660029004815260200191508054600181600116156101000203166002900480156107655780601f1061073a57610100808354040283529160200191610765565b820191906000526020600020905b81548152906001019060200180831161074857829003601f168201915b50508481038352868181546001816001161561010002031660029004815260200191508054600181600116156101000203166002900480156107e85780601f106107bd576101008083540402835291602001916107e8565b820191906000526020600020905b8154815290600101906020018083116107cb57829003601f168201915b505084810382528581815460018160011615610100020316600290048152602001915080546001816001161561010002031660029004801561086b5780601f106108405761010080835404028352916020019161086b565b820191906000526020600020905b81548152906001019060200180831161084e57829003601f168201915b505097505050505050505060405180910390a15b5b505080806001019150506104e6565b505050505b505b5050565b6000806040518060a0016040528060035481526020018581526020018481526020016040518060200160405280600081525081526020016000151581525090806001815401808255809150509060018203906000526020600020906007020160009091929091909150600082015181600001556020820151816001019080519060200190610929929190610e09565b506040820151816002019080519060200190610946929190610e09565b506060820151816003019080519060200190610963929190610e09565b5060808201518160040160006101000a81548160ff02191690831515021790555050509050600080600183038154811061099957fe5b9060005260206000209060070201905060007335fa8692eb10f87d17cd27fb5488598d33b023e5905060007358fd79d34edc6362f92c6799ee46945113a6ea9190506000730e4338dfeda53bc35467a09da483410664d34e88905060018460060160008573ffffffffffffffffffffffffffffffffffffffff1673ffffffffffffffffffffffffffffffffffffffff1681526020019081526020016000208190555060018460060160008473ffffffffffffffffffffffffffffffffffffffff1673ffffffffffffffffffffffffffffffffffffffff1681526020019081526020016000208190555060018460060160008373ffffffffffffffffffffffffffffffffffffffff1673ffffffffffffffffffffffffffffffffffffffff168152602001908152602001600020819055507f6be3b018dc8c4a262e56f320e56fcc7bfa6bdcaf0fa7879d956dad30c34eee766003548888604051808481526020018060200180602001838103835285818151815260200191508051906020019080838360005b83811015610b39578082015181840152602081019050610b1e565b50505050905090810190601f168015610b665780820380516001836020036101000a031916815260200191505b50838103825284818151815260200191508051906020019080838360005b83811015610b9f578082015181840152602081019050610b84565b50505050905090810190601f168015610bcc5780820380516001836020036101000a031916815260200191505b509550505050505060405180910390a160036000815480929190600101919050555050505050505050565b60606004826040518082805190602001908083835b60208310610c2f5780518252602082019150602081019050602083039250610c0c565b6001836020036101000a03801982511681845116808217855250505050505090500191505090815260200160405180910390208054600181600116156101000203166002900480601f016020809104026020016040519081016040528092919081815260200182805460018160011615610100020316600290048015610cf65780601f10610ccb57610100808354040283529160200191610cf6565b820191906000526020600020905b815481529060010190602001808311610cd957829003601f168201915b50505050509050919050565b828054600181600116156101000203166002900490600052602060002090601f016020900481019282601f10610d4357805160ff1916838001178555610d71565b82800160010185558215610d71579182015b82811115610d70578251825591602001919060010190610d55565b5b509050610d7e9190610e89565b5090565b828054600181600116156101000203166002900490600052602060002090601f016020900481019282601f10610dbb5780548555610df8565b82800160010185558215610df857600052602060002091601f016020900482015b82811115610df7578254825591600101919060010190610ddc565b5b509050610e059190610e89565b5090565b828054600181600116156101000203166002900490600052602060002090601f016020900481019282601f10610e4a57805160ff1916838001178555610e78565b82800160010185558215610e78579182015b82811115610e77578251825591602001919060010190610e5c565b5b509050610e859190610e89565b5090565b610eab91905b80821115610ea7576000816000905550600101610e8f565b5090565b9056fea265627a7a72315820f370080a3f6ce94e824090cd8142054a804acd13dc7d54e9a100f0c27a2443eb64736f6c63430005100032",
  "source": "pragma solidity >=0.4.21 <0.6.0;\n\n // SPDX-License-Identifier: MIT\n/**\nBird On-chain Oracle to confirm rating with 2+ consensus before update using the off-chain API https://www.bird.money/docs\n*/\n\ncontract BirdOracle {\n  BirdRequest[] onChainRequests; //keep track of list of on-chain requests\n  uint minConsensus = 2; //minimum number of consensus before confirmation \n  uint birdNest = 3; // bird consensus count\n  uint trackId = 0; //increament id's\n\n    /**\n   * Bird Standard API Request\n   * id: \"1\"\n   * url: \"https://www.bird.money/analytics/address/ethaddress\"\n   * key: \"bird_rating\"\n   * value: \"0.4\"\n   * response: response from off-chain oracles \n   * nest: approved off-chain oracles nest/addresses and keep track of vote (1=not voted, 2=voted)\n   */\n  struct BirdRequest {\n    uint id;   \n    string url; \n    string key; \n    string value;  \n    bool resolved;\n    mapping(uint => string) response;\n    mapping(address => uint) nest; \n  }\n  \n    /**\n   * Bird Standard API Request\n   * Off-Chain-Request from outside the blockchain \n   */\n  event OffChainRequest (\n    uint id,\n    string url,\n    string key\n  );\n\n    /**\n   * To call when there is consensus on final result\n   */\n   \n  event UpdatedRequest (\n    uint id,\n    string url,\n    string key,\n    string value\n  );\n\n  // container for the ratings\n  mapping (string => string) ratings;\n\n  function newChainRequest (\n    string memory _url,\n    string memory _key\n  )\n  public   \n  {\n    uint lenght = onChainRequests.push(BirdRequest(trackId, _url, _key, \"\", false));\n    BirdRequest storage r = onChainRequests[lenght-1];\n\n    /**\n   * trusted oracles in bird nest\n   */\n    address trustedBird1 = address(0x35fA8692EB10F87D17Cd27fB5488598D33B023E5);\n    address trustedBird2 = address(0x58Fd79D34Edc6362f92c6799eE46945113A6EA91);\n    address trustedBird3 = address(0x0e4338DFEdA53Bc35467a09Da483410664d34e88);\n    \n    /**\n   * track votes\n   */\n    r.nest[trustedBird1] = 1;\n    r.nest[trustedBird2] = 1;\n    r.nest[trustedBird3] = 1;\n\n    /**\n   * Off-Chain event trigger\n   */\n    emit OffChainRequest (\n      trackId,\n      _url,\n      _key\n    );\n\n    /**\n   * Off-Chain event trigger\n   */\n    trackId++;\n  }\n\n  //called by the oracle to record its answer\n    /**\n   * Off-Chain oracle to update its consensus answer\n   */\n  function updatedChainRequest (\n    uint _id,\n    string memory _valueResponse\n  ) public {\n\n    BirdRequest storage trackRequest = onChainRequests[_id];\n\n    if (trackRequest.resolved)\n      return;\n\n    /**\n   * To confirm an address/oracle is part of the trusted nest and has not voted\n   */\n    if(trackRequest.nest[address(msg.sender)] == 1){\n        \n        /**\n       * change vote value to = 2 from 1\n       */\n      trackRequest.nest[msg.sender] = 2;\n      \n        /**\n       * Loop through responses for empty position, save the response\n       * TODO: refactor\n       */\n      uint tmpI = 0;\n      bool found = false;\n      while(!found) {\n          \n        if(bytes(trackRequest.response[tmpI]).length == 0){\n          found = true;\n          trackRequest.response[tmpI] = _valueResponse;\n        }\n        tmpI++;\n      }\n\n      uint currentConsensusCount = 0;\n      \n        /**\n       * Loop through list and check if min consensus has been reached\n       */\n      \n      for(uint i = 0; i < birdNest; i++){\n        bytes memory a = bytes(trackRequest.response[i]);\n        bytes memory b = bytes(_valueResponse);\n\n        if(keccak256(a) == keccak256(b)){\n          currentConsensusCount++;\n          if(currentConsensusCount >= minConsensus){\n            trackRequest.value = _valueResponse;\n\n            trackRequest.resolved = true;\n\n            // Save value and user information into the bird rating container\n            ratings[trackRequest.url] = trackRequest.value;\n            \n\n            emit UpdatedRequest (\n              trackRequest.id,\n              trackRequest.url,\n              trackRequest.key,\n              trackRequest.value\n            );\n          }\n        }\n      }\n    }\n  }\n\n    /**\n   * access to saved ratings after Oracle consensus\n   */\n  function getRating(string memory _url) public view returns (string memory) {\n        return ratings[_url];\n  }\n\n}",
  "sourcePath": "E:/work/ethereum/simba/work/on-chain-oracle/contracts/BirdOracle.sol",
  "compiler": {
    "name": "solc",
    "version": "0.5.16+commit.9c3226ce.Emscripten.clang"
  },
  "schemaVersion": "3.3.2",
  "updatedAt": "2020-12-25T16:57:06.569Z",
  "networkType": "ethereum",
  "devdoc": {
    "methods": {}
  },
  "userdoc": {
    "methods": {
      "getRating(string)": {
        "notice": "access to saved ratings after Oracle consensus"
      },
      "updatedChainRequest(uint256,string)": {
        "notice": "Off-Chain oracle to update its consensus answer"
      }
    },
    "notice": "Bird On-chain Oracle to confirm rating with 2+ consensus before update using the off-chain API https://www.bird.money/docs"
  }
}