{
  "contractName": "BirdOracle",
  "abi": [
    {
      "anonymous": false,
      "inputs": [
        {
          "indexed": false,
          "internalType": "uint256",
          "name": "id",
          "type": "uint256"
        },
        {
          "indexed": false,
          "internalType": "string",
          "name": "url",
          "type": "string"
        },
        {
          "indexed": false,
          "internalType": "string",
          "name": "key",
          "type": "string"
        }
      ],
      "name": "OffChainRequest",
      "type": "event"
    },
    {
      "anonymous": false,
      "inputs": [
        {
          "indexed": false,
          "internalType": "uint256",
          "name": "id",
          "type": "uint256"
        },
        {
          "indexed": false,
          "internalType": "string",
          "name": "url",
          "type": "string"
        },
        {
          "indexed": false,
          "internalType": "string",
          "name": "key",
          "type": "string"
        },
        {
          "indexed": false,
          "internalType": "uint256",
          "name": "value",
          "type": "uint256"
        }
      ],
      "name": "UpdatedRequest",
      "type": "event"
    },
    {
      "constant": false,
      "inputs": [
        {
          "internalType": "string",
          "name": "_url",
          "type": "string"
        },
        {
          "internalType": "string",
          "name": "_key",
          "type": "string"
        }
      ],
      "name": "newChainRequest",
      "outputs": [],
      "payable": false,
      "stateMutability": "nonpayable",
      "type": "function"
    },
    {
      "constant": false,
      "inputs": [
        {
          "internalType": "uint256",
          "name": "_id",
          "type": "uint256"
        },
        {
          "internalType": "uint256",
          "name": "_valueResponse",
          "type": "uint256"
        }
      ],
      "name": "updatedChainRequest",
      "outputs": [],
      "payable": false,
      "stateMutability": "nonpayable",
      "type": "function"
    },
    {
      "constant": true,
      "inputs": [
        {
          "internalType": "address",
          "name": "_addr",
          "type": "address"
        }
      ],
      "name": "getRatingByAddress",
      "outputs": [
        {
          "internalType": "uint256",
          "name": "",
          "type": "uint256"
        }
      ],
      "payable": false,
      "stateMutability": "view",
      "type": "function"
    },
    {
      "constant": true,
      "inputs": [
        {
          "internalType": "string",
          "name": "_str",
          "type": "string"
        }
      ],
      "name": "getRatingByAddressString",
      "outputs": [
        {
          "internalType": "uint256",
          "name": "",
          "type": "uint256"
        }
      ],
      "payable": false,
      "stateMutability": "view",
      "type": "function"
    },
    {
      "constant": true,
      "inputs": [],
      "name": "getRating",
      "outputs": [
        {
          "internalType": "uint256",
          "name": "",
          "type": "uint256"
        }
      ],
      "payable": false,
      "stateMutability": "view",
      "type": "function"
    }
  ],
  "bytecode": "0x608060405260026001556003600255600060035534801561001f57600080fd5b506110ea8061002f6000396000f3fe608060405234801561001057600080fd5b50600436106100575760003560e01c806305cf8d5d1461005c578063130656cf1461007a578063955b431514610149578063a137a250146101a1578063e1acb766146101d9575b600080fd5b61006461032b565b6040518082815260200191505060405180910390f35b6101336004803603602081101561009057600080fd5b81019080803590602001906401000000008111156100ad57600080fd5b8201836020820111156100bf57600080fd5b803590602001918460018302840111640100000000831117156100e157600080fd5b91908080601f016020809104026020016040519081016040528093929190818152602001838380828437600081840152601f19601f820116905080830192505050505050509192919290505050610372565b6040518082815260200191505060405180910390f35b61018b6004803603602081101561015f57600080fd5b81019080803573ffffffffffffffffffffffffffffffffffffffff1690602001909291905050506103c3565b6040518082815260200191505060405180910390f35b6101d7600480360360408110156101b757600080fd5b81019080803590602001909291908035906020019092919050505061040c565b005b610329600480360360408110156101ef57600080fd5b810190808035906020019064010000000081111561020c57600080fd5b82018360208201111561021e57600080fd5b8035906020019184600183028401116401000000008311171561024057600080fd5b91908080601f016020809104026020016040519081016040528093929190818152602001838380828437600081840152601f19601f820116905080830192505050505050509192919290803590602001906401000000008111156102a357600080fd5b8201836020820111156102b557600080fd5b803590602001918460018302840111640100000000831117156102d757600080fd5b91908080601f016020809104026020016040519081016040528093929190818152602001838380828437600081840152601f19601f820116905080830192505050505050509192919290505050610761565b005b6000600460003373ffffffffffffffffffffffffffffffffffffffff1673ffffffffffffffffffffffffffffffffffffffff16815260200190815260200160002054905090565b60006004600061038184610b6b565b73ffffffffffffffffffffffffffffffffffffffff1673ffffffffffffffffffffffffffffffffffffffff168152602001908152602001600020549050919050565b6000600460008373ffffffffffffffffffffffffffffffffffffffff1673ffffffffffffffffffffffffffffffffffffffff168152602001908152602001600020549050919050565b600080838154811061041a57fe5b906000526020600020906008020190508060050160009054906101000a900460ff1615610447575061075d565b60018160070160003373ffffffffffffffffffffffffffffffffffffffff1673ffffffffffffffffffffffffffffffffffffffff16815260200190815260200160002054141561075b5760028160070160003373ffffffffffffffffffffffffffffffffffffffff1673ffffffffffffffffffffffffffffffffffffffff16815260200190815260200160002081905550600081600401549050828260060160008381526020019081526020016000208190555060018101826004018190555060006001905060008090505b8281101561075757600084600601600083815260200190815260200160002054905060008690508082141561074857838060010194505060015484106107475786866003018190555060018660050160006101000a81548160ff0219169083151502179055508560030154600460008860050160019054906101000a900473ffffffffffffffffffffffffffffffffffffffff1673ffffffffffffffffffffffffffffffffffffffff1673ffffffffffffffffffffffffffffffffffffffff168152602001908152602001600020819055507f92cd7eb0bd7501df710956d329b91619314579e49f857dd4c1b773a296896d318660000154876001018860020189600301546040518085815260200180602001806020018481526020018381038352868181546001816001161561010002031660029004815260200191508054600181600116156101000203166002900480156106b15780601f10610686576101008083540402835291602001916106b1565b820191906000526020600020905b81548152906001019060200180831161069457829003601f168201915b50508381038252858181546001816001161561010002031660029004815260200191508054600181600116156101000203166002900480156107345780601f1061070957610100808354040283529160200191610734565b820191906000526020600020905b81548152906001019060200180831161071757829003601f168201915b5050965050505050505060405180910390a15b5b50508080600101915050610513565b5050505b505b5050565b6000806040518060e0016040528060035481526020018581526020018481526020016000815260200160008152602001600015158152602001600073ffffffffffffffffffffffffffffffffffffffff1681525090806001815401808255809150509060018203906000526020600020906008020160009091929091909150600082015181600001556020820151816001019080519060200190610806929190611010565b506040820151816002019080519060200190610823929190611010565b50606082015181600301556080820151816004015560a08201518160050160006101000a81548160ff02191690831515021790555060c08201518160050160016101000a81548173ffffffffffffffffffffffffffffffffffffffff021916908373ffffffffffffffffffffffffffffffffffffffff1602179055505050905060008060018303815481106108b457fe5b9060005260206000209060080201905060007335fa8692eb10f87d17cd27fb5488598d33b023e5905060007358fd79d34edc6362f92c6799ee46945113a6ea9190506000730e4338dfeda53bc35467a09da483410664d34e88905060018460070160008573ffffffffffffffffffffffffffffffffffffffff1673ffffffffffffffffffffffffffffffffffffffff1681526020019081526020016000208190555060018460070160008473ffffffffffffffffffffffffffffffffffffffff1673ffffffffffffffffffffffffffffffffffffffff1681526020019081526020016000208190555060018460070160008373ffffffffffffffffffffffffffffffffffffffff1673ffffffffffffffffffffffffffffffffffffffff1681526020019081526020016000208190555060606109ef88610dc4565b90506109fa81610b6b565b8560050160016101000a81548173ffffffffffffffffffffffffffffffffffffffff021916908373ffffffffffffffffffffffffffffffffffffffff1602179055507f6be3b018dc8c4a262e56f320e56fcc7bfa6bdcaf0fa7879d956dad30c34eee766003548989604051808481526020018060200180602001838103835285818151815260200191508051906020019080838360005b83811015610aac578082015181840152602081019050610a91565b50505050905090810190601f168015610ad95780820380516001836020036101000a031916815260200191505b50838103825284818151815260200191508051906020019080838360005b83811015610b12578082015181840152602081019050610af7565b50505050905090810190601f168015610b3f5780820380516001836020036101000a031916815260200191505b509550505050505060405180910390a16003600081548092919060010191905055505050505050505050565b6000606082905060008090506000806000600290505b602a811015610db75761010084029350848181518110610b9d57fe5b602001015160f81c60f81b60f81c60ff169250846001820181518110610bbf57fe5b602001015160f81c60f81b60f81c60ff16915060618373ffffffffffffffffffffffffffffffffffffffff1610158015610c10575060668373ffffffffffffffffffffffffffffffffffffffff1611155b15610c2057605783039250610cba565b60418373ffffffffffffffffffffffffffffffffffffffff1610158015610c5e575060468373ffffffffffffffffffffffffffffffffffffffff1611155b15610c6e57603783039250610cb9565b60308373ffffffffffffffffffffffffffffffffffffffff1610158015610cac575060398373ffffffffffffffffffffffffffffffffffffffff1611155b15610cb8576030830392505b5b5b60618273ffffffffffffffffffffffffffffffffffffffff1610158015610cf8575060668273ffffffffffffffffffffffffffffffffffffffff1611155b15610d0857605782039150610da2565b60418273ffffffffffffffffffffffffffffffffffffffff1610158015610d46575060468273ffffffffffffffffffffffffffffffffffffffff1611155b15610d5657603782039150610da1565b60308273ffffffffffffffffffffffffffffffffffffffff1610158015610d94575060398273ffffffffffffffffffffffffffffffffffffffff1611155b15610da0576030820391505b5b5b81601084020184019350600281019050610b81565b5082945050505050919050565b6060808290506000600182510390505b60008110610eb1577f2f00000000000000000000000000000000000000000000000000000000000000828281518110610e0957fe5b602001015160f81c60f81b7effffffffffffffffffffffffffffffffffffffffffffffffffffffffffffff19161480610e9957507f5c00000000000000000000000000000000000000000000000000000000000000828281518110610e6a57fe5b602001015160f81c60f81b7effffffffffffffffffffffffffffffffffffffffffffffffffffffffffffff1916145b15610ea357610eb1565b808060019003915050610dd4565b6000811015610f28576040517f08c379a00000000000000000000000000000000000000000000000000000000081526004018080602001828103825260118152602001807f4e6f206164647265737320666f756e642e00000000000000000000000000000081525060200191505060405180910390fd5b610f358460018301610f3e565b92505050919050565b6060610f4c83838551610f54565b905092915050565b60608084905060608484036040519080825280601f01601f191660200182016040528015610f915781602001600182028038833980820191505090505b50905060008590505b8481101561100357828181518110610fae57fe5b602001015160f81c60f81b8287830381518110610fc757fe5b60200101907effffffffffffffffffffffffffffffffffffffffffffffffffffffffffffff1916908160001a9053508080600101915050610f9a565b5080925050509392505050565b828054600181600116156101000203166002900490600052602060002090601f016020900481019282601f1061105157805160ff191683800117855561107f565b8280016001018555821561107f579182015b8281111561107e578251825591602001919060010190611063565b5b50905061108c9190611090565b5090565b6110b291905b808211156110ae576000816000905550600101611096565b5090565b9056fea265627a7a72315820abef691e0411e5760e2c53d4b771e0630d917d8536ee3f505520222c8f18139964736f6c63430005100032",
  "source": "pragma solidity ^0.5.16;\n\n // SPDX-License-Identifier: MIT\n/**\nBird On-chain Oracle to confirm rating with 2+ consensus before update using the off-chain API https://www.bird.money/docs\n*/\n\ncontract BirdOracle {\n  BirdRequest[] onChainRequests; //keep track of list of on-chain requests\n  uint minConsensus = 2; //minimum number of consensus before confirmation \n  uint birdNest = 3; // bird consensus count\n  uint trackId = 0; //increament id's\n\n    /**\n   * Bird Standard API Request\n   * id: \"1\"\n   * url: \"https://www.bird.money/analytics/address/ethaddress\"\n   * key: \"bird_rating\"\n   * value: \"0.4\" => 400000000000000000\n   * arrivedBirds: 0\n   * resolved: true/false\n   * addr: 0x...\n   * response: response from off-chain oracles \n   * nest: approved off-chain oracles nest/addresses and keep track of vote (1=not voted, 2=voted)\n   */\n  struct BirdRequest {\n    uint id;   \n    string url; \n    string key; \n    uint value;\n    uint arrivedBirds;\n    bool resolved;\n    address addr;\n    mapping(uint => uint) response;\n    mapping(address => uint) nest; \n  }\n  \n    /**\n   * Bird Standard API Request\n   * Off-Chain-Request from outside the blockchain \n   */\n  event OffChainRequest (\n    uint id,\n    string url,\n    string key\n  );\n\n    /**\n   * To call when there is consensus on final result\n   */\n   \n  event UpdatedRequest (\n    uint id,\n    string url,\n    string key,\n    uint value\n  );\n\n  // container for the ratings\n  mapping (address => uint) ratings;\n\n  function newChainRequest (\n    string memory _url,\n    string memory _key\n  )\n  public   \n  {\n    uint length = onChainRequests.push(BirdRequest(trackId, _url, _key, 0, 0, false, address(0)));\n    BirdRequest storage r = onChainRequests[length - 1];\n\n    /**\n   * trusted oracles in bird nest\n   */\n    address trustedBird1 = address(0x35fA8692EB10F87D17Cd27fB5488598D33B023E5);\n    address trustedBird2 = address(0x58Fd79D34Edc6362f92c6799eE46945113A6EA91);\n    address trustedBird3 = address(0x0e4338DFEdA53Bc35467a09Da483410664d34e88);\n    \n    /**\n   * track votes\n   */\n    r.nest[trustedBird1] = 1;\n    r.nest[trustedBird2] = 1;\n    r.nest[trustedBird3] = 1;\n\n    /**\n   * save caller address\n   */\n    //r.addr = msg.sender;\n\n    string memory addrStr = extractAddress(_url);\n    r.addr = parseAddr(addrStr);\n\n    /**\n   * Off-Chain event trigger\n   */\n    emit OffChainRequest (\n      trackId,\n      _url,\n      _key\n    );\n\n    /**\n   * Off-Chain event trigger\n   */\n    trackId++;\n  }\n\n  //called by the oracle to record its answer\n    /**\n   * Off-Chain oracle to update its consensus answer\n   */\n  function updatedChainRequest (\n    uint _id,\n    uint _valueResponse\n  ) public {\n\n    BirdRequest storage trackRequest = onChainRequests[_id];\n\n    if (trackRequest.resolved)\n      return;\n\n    /**\n   * To confirm an address/oracle is part of the trusted nest and has not voted\n   */\n    if(trackRequest.nest[msg.sender] == 1){\n        \n        /**\n       * change vote value to = 2 from 1\n       */\n      trackRequest.nest[msg.sender] = 2;\n      \n        /**\n       * Loop through responses for empty position, save the response\n       * TODO: refactor\n       */\n      uint tmpI = trackRequest.arrivedBirds;\n      trackRequest.response[tmpI] = _valueResponse;\n      trackRequest.arrivedBirds = tmpI + 1;\n      \n      uint currentConsensusCount = 1;\n      \n        /**\n       * Loop through list and check if min consensus has been reached\n       */\n      \n      for(uint i = 0; i < tmpI; i++){\n        uint a = trackRequest.response[i];\n        uint b = _valueResponse;\n\n        if(a == b){\n          currentConsensusCount++;\n          if(currentConsensusCount >= minConsensus){\n            trackRequest.value = _valueResponse;\n            trackRequest.resolved = true;\n\n            // Save value and user information into the bird rating container\n            ratings[trackRequest.addr] = trackRequest.value;\n            \n            emit UpdatedRequest (\n              trackRequest.id,\n              trackRequest.url,\n              trackRequest.key,\n              trackRequest.value\n            );\n          }\n        }\n      }\n    }\n  }\n\n    /**\n   * access to saved ratings after Oracle consensus\n   */\n\n  function getRatingByAddress(address _addr) public view returns (uint) {\n    return ratings[_addr];\n  }\n\n  function getRatingByAddressString(string memory _str) public view returns (uint) {\n    return ratings[parseAddr(_str)];\n  }\n\n  function getRating() public view returns (uint) {\n    return ratings[msg.sender];\n  }\n\n  function extractAddress(string memory url) internal pure returns (string memory) {\n    bytes memory strBytes = bytes(url);\n    uint index = strBytes.length - 1;\n    while (index >= 0) {\n      if (strBytes[index] == \"/\" || strBytes[index] == \"\\\\\")\n        break;\n      index--;\n    }\n    require(index >= 0, \"No address found.\");\n    return substring(url, index + 1);\n  }\n\n  function substring(string memory str, uint startIndex) internal pure returns (string memory) {\n    return substring(str, startIndex, bytes(str).length);\n  }\n\n  function substring(string memory str, uint startIndex, uint endIndex) internal pure returns (string memory) {\n    bytes memory strBytes = bytes(str);\n    bytes memory result = new bytes(endIndex - startIndex);\n    for(uint i = startIndex; i < endIndex; i++) {\n        result[i-startIndex] = strBytes[i];\n    }\n    return string(result);\n  }\n\n  function parseAddr(string memory str) internal pure returns (address){\n    bytes memory strBytes = bytes(str);\n    uint160 iaddr = 0;\n    uint160 b1;\n    uint160 b2;\n    for (uint i = 2; i < 2+2*20; i += 2){\n      iaddr *= 256;\n      b1 = uint160(uint8(strBytes[i]));\n      b2 = uint160(uint8(strBytes[i + 1]));\n      if ((b1 >= 97) && (b1 <= 102)) {\n        b1 -= 87;\n      } else if ((b1 >= 65) && (b1 <= 70)) {\n        b1 -= 55;\n      } else if ((b1 >= 48) && (b1 <= 57)) {\n        b1 -= 48;\n      }\n      if ((b2 >= 97) && (b2 <= 102)) {\n        b2 -= 87;\n      } else if ((b2 >= 65) && (b2 <= 70)) {\n        b2 -= 55;\n      } else if ((b2 >= 48) && (b2 <= 57)) {\n        b2 -= 48;\n      }\n      iaddr += (b1 * 16 + b2);\n    }\n    return address(iaddr);\n  }\n}",
  "sourcePath": "E:/work/ethereum/simba/work/on-chain-oracle/contracts/BirdOracle.sol",
  "compiler": {
    "name": "solc",
    "version": "0.5.16+commit.9c3226ce.Emscripten.clang"
  },
  "schemaVersion": "3.3.3",
  "updatedAt": "2021-01-24T17:34:25.957Z",
  "networkType": "ethereum",
  "devdoc": {
    "methods": {}
  },
  "userdoc": {
    "methods": {
      "getRatingByAddress(address)": {
        "notice": "access to saved ratings after Oracle consensus"
      },
      "updatedChainRequest(uint256,uint256)": {
        "notice": "Off-Chain oracle to update its consensus answer"
      }
    },
    "notice": "Bird On-chain Oracle to confirm rating with 2+ consensus before update using the off-chain API https://www.bird.money/docs"
  }
}